:100000000C945F050C94A6050C94A6050C94FD2594
:100010000C94A6050C94A6050C94A6050C94A605B4
:100020000C94A6050C94A6050C94F42D0C94C82EE3
:100030000C9404290C94A6050C94A6050C94A60512
:100040000C94A6050C94A6050C94A6050C94A60584
:100050000C94A6050C9477290C94A6050C94A6057F
:100060000C94A6050C94A6050C94A6050C94A60564
:100070000C94A6050C94A6050C94A6050C94A60554
:100080000C94A6050C94A6050C94A6050C94A60544
:100090000C94A6050C94A6050C94A6050C94A60534
:1000A0000C94A6050C94A6050C94A60546554E4343
:1000B00054494F4E53004E554D42455253005359EB
:1000C0004D424F4C530053574150004E4156494703
:1000D0004154494F4E004D4544494100434F4C4522
:1000E0004D414B00515745525459004C617965724E
:1000F0003A2000290014001A000800150017002BF0
:100100000004611664076809620A0039001D001BBB
:10011000000600190005000000000000004C422A03
:100120004328442A04130012000C0018001C003459
:100130000033610F640E680D620B00350038003724
:100140000036001000110000000000000029472CBC
:10015000462B45290014001A000900130005002B46
:100160000004611564166817620A0039001D001B3F
:10017000000600070019000000000000004C422AA1
:100180004328442A0433001C0018000F000D0034DB
:100190000012610C640868116210003500380037E5
:1001A0000036000B000E0000000000000029472C64
:1001B000462B45B000000000008000000000000059
:1001C000000000AC008100AB000000000000000057
:1001D000000000000000000000000000000000001F
:1001E000000000B0000000000080000000000000DF
:1001F000000000AB008100AC000000000000000027
:1002000000000000000000000000000000A800AE98
:1002100000AD000000000000000000000000000031
:10022000007A007B007C007D007900000000000067
:1002300000000000000000000000000000000000BE
:1002400000000000004B004D0052004A0049000031
:10025000004E004F0051005000000000007A007B6B
:10026000007C007D0079000000000000000000001C
:10027000000000000000000000520000000000002C
:10028000000000500051004F00000000000000007E
:10029000000000000000000000000000000000005E
:1002A000000000000000000000000000000000004E
:1002B000000000000000000000000000000000003E
:1002C000000000000000000000000000000000012D
:1002D000520052240231022F005700300020023613
:1002E00002370226022E0027022502350031002F98
:1002F000022D0030023800000000000000360037F8
:100300000033000000000000000000000022020096
:1003100000E000E200E300E1002302000035021FDC
:100320000221021E021E0200000000000000000068
:1003300000000000002F00240025002600300000EF
:100340000026022100220023002702000000001ED8
:10035000001F002000000000000000000001570204
:1003600057035700002202230225022E020000003C
:1003700000E000E200E300E1000057000000002E72
:100380000038002D00000000000000000000000008
:1003900000000045004000410042004600000044CB
:1003A000003D003E003F004800000043003A003B93
:1003B000003C0047000000000000000000000000BA
:1003C000000000000000000000000000000000002D
:1003D000000000000000000000000000000000001D
:1003E000000000000000000000000000000000000D
:1003F00000000000AE00AF00DA0281B9D9F1DB20C5
:10040000A4A62EAF00A0C000A1C800AED580A81F32
:10041000D300408D1420000000000000003E5B4F20
:100420005B3E003E6B4F6B3E001C3E7C3E1C00184A
:100430003C7E3C18001C577D571C001C5E7F5E1CD8
:100440000000183C180000FFE7C3E7FF0000182475
:10045000180000FFE7DBE7FF0030483A060E0026F1
:100460002979292600407F05050700407F05253FA3
:10047000005A3CE73C5A007F3E1C1C0800081C1C2C
:100480003E7F0014227F2214005F5F005F5F000642
:10049000097F017F00006689956A00606060606086
:1004A0000094A2FFA2940008047E04080010207E9D
:1004B00020100008082A1C0800081C2A0808001E32
:1004C00010101010000C1E0C1E0C0030383E38307E
:1004D00000060E3E0E060000000000000000005F57
:1004E000000000000700070000147F147F140024A0
:1004F0002A7F2A12002313086462003649562050CE
:1005000000000807030000001C22410000004122F7
:100510001C00002A1C7F1C2A0008083E0808000056
:1005200080703000000808080808000000606000C3
:10053000002010080402003E5149453E0000427F61
:100540004000007249494946002141494D33001895
:1005500014127F10002745454539003C4A4949316E
:1005600000412111090700364949493600464949E9
:10057000291E0000001400000000403400000000AC
:100580000814224100141414141400004122140809
:10059000000201590906003E415D594E007C1211CE
:1005A000127C007F49494936003E41414122007F8B
:1005B0004141413E007F49494941007F0909090104
:1005C000003E41415173007F0808087F0000417FD1
:1005D0004100002040413F01007F08142241007F7C
:1005E00040404040007F021C027F007F0408107FD3
:1005F000003E4141413E007F09090906003E41514C
:10060000215E007F09192946002649494932000325
:10061000017F0103003F4040403F001F2040201F5A
:10062000003F4038403F006314081463000304781F
:100630000403006159494D4300007F4141410002DC
:100640000408102000004141417F0004020102041F
:100650000040404040400000030708000020545480
:100660007840007F28444438003844444428003807
:100670004444287F0038545454180000087E09026E
:10068000001824241C78007F080404780000447DAE
:100690004000002040403D00007F10284400000042
:1006A000417F4000007C04780478007C08040478D2
:1006B000003844444438007C1824241800182424AA
:1006C000187C007C08040408004854545424000496
:1006D000043F4424003C4040207C001C2040201C5F
:1006E000003C4030403C004428102844004C90908E
:1006F000907C004464544C440000083641000000E3
:1007000000770000000041360800000201020402E8
:10071000003C2623263C00000000000000000000F2
:1007200000000000000000C0E0F0F8F81800C0F081
:10073000FCFEFFFFFFFFFFFFFF7E00000000000048
:1007400000000080C0E0E0E0E0E0E0E0E0C0800029
:1007500000000080C0E0E0E0E0E0E0E0E0C0800019
:100760000000E0E0C0C0E0E0E0E00000E0E0C0C089
:10077000E0E0E0E0E0C0800000000080C0E0E0E0F9
:10078000E0E0E0E0E0C080000000000000000000C9
:100790000000000000E0F0F0F0E0ECEEF7F3702075
:1007A000007C7C7C7E007E7E7E7F7F7F000080C020
:1007B000E07E5B4F5BFEC00000C000DCD7DEDEDE0B
:1007C000D7DC00C0000000000000000000000000B6
:1007D0000000000000000000000000000000000019
:1007E000F8FCFEFFE000FFFFFFFFFFFF80FFFFFFC1
:1007F000FFFFFFFFFFFF1F070100000000000000D8
:100800000000FFFFFF8100000000000081C3C3C3A0
:100810000000FFFFFF8100000000000081FFFFFFDC
:100820000000FFFFFF01000000000000FFFFFF01CC
:100830000000000001FFFFFF0000FFFFFF9D1C1CE8
:100840001C1C1C1C9DDFDFDF0000000000000000FE
:1008500000000000000F1F3F7F7F7F7F7F3F1E0C47
:10086000001F1F1F3F003F3F3F7F7F7F00307B7F88
:100870007830202030787F3B0003000F7F0F0F0F70
:100880007F0F0003000000000000000000000000D7
:100890000000000000000000000000000000000058
:1008A000030F1F3F3F3F3F1F1F3F3F7F7F7F3F3F64
:1008B0001F3F7F7F7F7F7C7878381C0F000000000F
:1008C00000000001030707070707070707030100E8
:1008D00000000001030707070707070707030100D8
:1008E00000000707070000000000000007070700DE
:1008F00000000000000707070000000103070707CA
:1009000007070707070301000000000000000000C0
:1009100000000000000000000000000000000000D7
:1009200000000000000000000000000000000000C7
:1009300000000000000000000000000000000000B7
:1009400000000000000000000000000000000000A7
:10095000000000000000000C0343006F0072006EF6
:100960000065000000100366006F006F00730074E4
:100970000061006E0000000403090409023B00024C
:100980000100A0FA0904000001030101000921117E
:100990000100012240000705810308000A09040143
:1009A00000010300000009211101000122B6000727
:1009B00005820320000A12010002000000085346CD
:1009C000010001000102000105010902A1018502E7
:1009D0000901A1000509190129081500250195083B
:1009E000750181020501093009311581257F9502C4
:1009F0007508810609381581257F950175088106DE
:100A0000050C0A38021581257F950175088106C0FD
:100A1000C005010980A101850319012AB70015014C
:100A200026B700950175108100C0050C0901A101D0
:100A3000850419012AA002150126A002950175104E
:100A40008100C005010906A1018506050719E029F5
:100A5000E715002501950875018102050719002990
:100A6000EF1500250195F07501810205081901298E
:100A700005950575019102950175039101C0050168
:100A80000906A101050719E029E7150025019508C8
:100A9000750181029501750881010507190029FF7B
:100AA000150026FF00950675088100050819012923
:100AB00005950575019102950175039101C01124F9
:100AC0001FBECFEFDAE0DEBFCDBF04B603FE27C006
:100AD00080910F0690911006A0911106B091120618
:100AE0008730904BA740B04BD1F410920F06109274
:100AF0001006109211061092120614BE84B7877F5A
:100B000084BF0FB6F894A8958091600088618093A7
:100B10006000109260000FBEE0E0F8E3099512E07B
:100B2000A0E0B1E0E6E5F8E602C005900D92A4373A
:100B3000B107D9F726E0A4E7B2E001C01D92AF30BB
:100B4000B207E1F70E94DB180C94FD330C9400000F
:100B5000CF93C82F0E949C16811101C0C2E08C2F38
:100B6000CF91089560E08BEE90E00E94181D809177
:100B7000AD029091AE02A091AF02B091B002883068
:100B80009105A105B105F8F4FC01E150FC4C60E0D1
:100B90000C94C03084EE90E00C942A1D8CED90E013
:100BA000FBCF86ED90E0F8CF8BEC90E0F5CF86ECB4
:100BB00090E0F2CF8EEB90E0EFCF86EB90E0ECCFC1
:100BC0008CEA90E0E9CF08959C013056211540E26F
:100BD000340720F0305E2115304108F4992720E2D7
:100BE0008C33910520F4FC01E254FE4F20811F92CA
:100BF0002F939F938F93FB0180811F928F9381810D
:100C00001F928F938CEA91E09F938F931F9288E1BC
:100C10008F9386E792E09F938F930E94E5308DB784
:100C20009EB70E960FB6F8949EBF0FBE8DBF089567
:100C300060E086E792E00C94FC1C0E949C168823DE
:100C400021F00E94B2050E94180680E00895FB0181
:100C5000228121110E94E40581E008959C013A95CA
:100C600021153F4150F5FC01EE27F170BC016627CC
:100C70007270AC01442754709C012227387094FF95
:100C80000EC080E1EF2B09F480E0672B09F0806251
:100C9000452B09F08064232B89F08068089581E05A
:100CA000EF2B09F480E0672B09F08260452B09F0F7
:100CB0008460232B19F08860089580E00895CF9315
:100CC000DF93EC010E942E069E01205E3109283040
:100CD000310510F0209739F40E945A088C2FDF91CB
:100CE000CF910C94BE070E94CE0AF8CFCF93DF932A
:100CF000EC010E940C08CE010E942E069E01205E8F
:100D000031092830310510F0CD2B21F4DF91CF913E
:100D10000C946108DF91CF910C94D50A81E008957D
:100D20000C94270608950C9492061F93CF93DF939B
:100D300000D000D00F92CDB7DEB749835A836B83C2
:100D400030918E0289819A8131111DC06623B9F0DC
:100D50002223A9F00E94A00C182F682F89819A8164
:100D60000E94490C69817A81812F0F900F900F901A
:100D70000F900F90DF91CF911F910C9460130E9400
:100D8000770C182FEFCF0E94A00C69817A81EDCFEC
:100D9000FC01262F408151816281738184810C94F2
:100DA000950681E00895CF93DF93EC0160E00E9407
:100DB000C806BE01DF91CF910C9493060E94B31434
:100DC0000E9472070C94D8140E94FE230E94EA200D
:100DD0000C94DB1480E00E9473070C944B1E089562
:100DE00008950E94F20A0E94F0062FEF84E39CE02F
:100DF000215080409040E1F700C000000C949B29F6
:100E00000F931F93CF93DF938C0161E00E94C8067C
:100E1000EC01B8010E945A23B801CE010E9490064D
:100E2000882309F441C0B801CE010E94A32388237E
:100E3000D9F1B801CE010E9419218823A9F1B80186
:100E4000CE010E947822882379F1B801CE010E9458
:100E5000A21E882349F1B801CE010E94E221882315
:100E600019F1F8018281882361F0CB35FDE5DF07B8
:100E700021F170F4C115ECE5DE07A1F0CF3DDC45B2
:100E8000C9F0C801DF91CF911F910F910C948E068C
:100E9000CC358DE5D807A1F0CD35DD4591F70E9421
:100EA000B910EFCF0E94F10680E0DF91CF911F9142
:100EB0000F9108950E947311F7CF0E94C210E1CFE5
:100EC0000E94C510DECF0C94EF060E9481270E947D
:100ED00073070C94630708950C946B0781E00895E1
:100EE0000C946E070895CF93C82F0E946C078C2F27
:100EF000CF910C947007CF93DF93CDB7DEB72B97CC
:100F00000FB6F894DEBF0FBECDBF4F8358876987F9
:100F10007A878B8761110E9414101E821D8285E0E2
:100F2000FE013796DE01119601900D928A95E1F748
:100F30008C819D81892B89F449815A816B817C81C7
:100F40008D819E810E94320F2B960FB6F894DEBFE2
:100F50000FBECDBFDF91CF91089589819A818923FA
:100F60008F3F51F3CE0101960E94D1068111E4CF4B
:100F7000EBCFFC01808191810C94E20CCF93C82FC0
:100F8000882309F447C08CEF8C0F813AA0F46C2FB2
:100F900080916A0190916B010E94FC27882329F0BF
:100FA0008C2F0E94D30F0E9437108C2F0E94CC0FE1
:100FB000CF910C94371080E28C0F883048F4C770C2
:100FC00081E001C0880FCA95EAF70E94F40FF0CFC4
:100FD000EBE5EC0FE33040F4F0E0E85DFD4F80819D
:100FE00090E0CF910C94BC27E8E5EC0FE73150F48A
:100FF000F0E0EE0FFF1FE650FE4F80819181CF9110
:101000000C94D227CD3E30F08C2F0E946B19CF91DB
:101010000C943E1ACF910895882361F19CEF980FAC
:10102000913A20F40E94D30F0C94371090E2980F5D
:10103000983050F4877091E001C0990F8A95EAF7D3
:10104000892F0E94FA0FF0CF9BE5980F933020F480
:1010500090E080E00C94BC2798E5980F973120F43D
:1010600090E080E00C94D2278D3E20F00E94C519BC
:101070000C943E1A08951F93CF93DF93182FEB0122
:101080000E94BE07209731F4812FDF91CF911F91ED
:101090000C940C088FE99FE00197F1F700C0000065
:1010A0002197F0CF70E060E0893311F460E570E0E3
:1010B0000C943B08882321F00E94F40F0C94371005
:1010C0000895882321F00E94FA0F0C943710089598
:1010D000BF92CF92DF92EF92FF920F931F93CF9325
:1010E000DF936C01D62FC72FFC0112810581029579
:1010F0000F700E94EA0FE82E8823B9F0E12E112329
:10110000A1F08C2F807F803421F080E28D0F883019
:10111000C8F08091E20382FD15C082E00E94881031
:101120000E94EA0F91E0E82EE926BC2EB2949FE0DF
:10113000B922FBE0FB15B8F1EB2DF0E0E95FFB4CC9
:101140000C94C030E12CF1CF0C2F0F70C07F11F048
:101150000295007F112399F0002359F080E28D0F52
:10116000883010F0D11107C0802F0E94F40F0E9428
:1011700037108D2F5FC0802F0E940710F8CF8D2F62
:101180000E940C08002379F080E28D0F883010F067
:10119000D11104C0802F0E94FA0F03C0802F0E943B
:1011A0000D100E943710EB2DE850FF0B349720F400
:1011B0000E9481270E947307EE2009F4A2C10E94B9
:1011C000E60F80FD9EC1F60112820E94E00F0E9490
:1011D000AD0BC6010E94A20A0E94E00FDF91CF91E1
:1011E0001F910F91FF90EF90DF90CF90BF900C94E4
:1011F000CE0B2C2F2F70F22EC07FC03219F0F2943C
:1012000080EFF822DD2341F0D130E9F1112309F418
:1012100045C00023E9F1ADCF8091E20382FF15C004
:10122000112359F0FF2029F08F2D0E94F40F0E9406
:10123000371080E00E94BE07B6CF80E00E940C0805
:10124000FF2009F4B0CF8F2DA6CF112381F001111B
:1012500006C00E941A108F290E945A08A4CF01309C
:10126000C1F70E941A108F290E9420109CCF0111F3
:1012700006C00E942D108F2D0E94610894CF01306E
:1012800009F491CFF6CF112329F0063008F08BCF67
:101290008F2DE2CF053008F086CFEDCF002359F334
:1012A000D93349F43FEF87EE93E0315080409040CE
:1012B000E1F700C000008D2F0E940C0874CF8C2F26
:1012C00086958695837069F0813009F06CCF8D2FFB
:1012D0009C2F9370111102C090E080E00E94D227F1
:1012E00062CF8D2F9C2F9370111102C090E080E08F
:1012F0000E94BC2758CF8D2F112329F00E946B1913
:101300000E943E1A50CF0E94C519FACF8C2F8370CD
:1013100009F041C0111147CF4D2F429546954770B6
:10132000440F440F0D2F0F7010E030E020E0042E2A
:1013300004C0000F111F221F331F0A94D2F760E070
:1013400070E0CB01D4FF0FC06FE070E080E090E070
:1013500004C0660F771F881F991F4A95D2F76095C2
:10136000709580959095C695C695C370602B712B2E
:10137000822B932BC23049F058F4C13019F00E94EF
:101380005F0B11CF0E944D0B0ECF0E94710B0BCF44
:101390000E944B0B08CF8695112311F08C2F817082
:1013A000882309F400CF4D2F429546954770440F8E
:1013B000440F0D2F0F7010E030E020E0042E04C029
:1013C000000F111F221F331F0A94D2F760E070E054
:1013D000CB01D4FF0FC06FE070E080E090E004C06C
:1013E000660F771F881F991F4A95D2F760957095F1
:1013F00080959095C695C695C370602B712B822BF6
:10140000932BC23049F058F4C13019F00E94240CDB
:10141000CACE0E94120CC7CE0E94360CC4CE0E94C7
:10142000870BC1CECF70112329F08C2F0E94AD0BFA
:101430008D2F12CF8D2F0E9461088C2F0E94CE0B12
:10144000B2CED23F41F160F4D03FB9F0D13F81F04C
:10145000112309F446C001118CCE8C2F8F711FC04F
:10146000D33F01F1D43FA1F78091E20382FF24C072
:101470008C2F8F71112311F312C0112341F005300D
:1014800008F091CE8C2F8F710E94F10B8CCE06301C
:1014900008F089CEF7CF8C2F8F711111CFCF0E941A
:1014A000AD0B81CE112329F08C2F8F710E94980BE8
:1014B0007ACE0E94930B77CE112349F0CF718C2FF7
:1014C0000E94AD0B63E08C2F0E946D106CCE81E00A
:1014D0000E948810023008F466CE82E00E948810D4
:1014E00062CE002359F0D93309F0E5CEEFEFF7EEE5
:1014F00023E0E150F0402040E1F7DBCE8C2F8F71EC
:101500009DCFDF91CF911F910F91FF90EF90DF90D2
:10151000CF90BF9008950F931F93CF93DF93EC016B
:10152000688179818A810E94EC0C8C010E94480CB0
:101530000E944A0BB801CE01DF91CF911F910F910C
:101540000C946808CF93DF93EC018B819C81892BED
:1015500029F08881998189238F3F59F4DF91CF91B8
:101560000895CE010E948B0ACE01DF91CF910C9499
:10157000D306CE010E9400078111F3CF0E94EA0F2B
:10158000882361F38A81882349F38091E20382FDF5
:10159000E5CF82E0DF91CF910C948810882321F071
:1015A0000E9407100C9437100895882321F00E94A0
:1015B0000D100C943710089590E080E00E94BC2735
:1015C00090E080E00E94D2270E9414100E94171021
:1015D0000E9437100E94651B0C943E1A0E94DA0F7D
:1015E0000C94DC0A0E9401100C94EE0AE92FE2959B
:1015F000EF70E250EE3070F4F0E0ED5EFB4C0C94D6
:10160000C030803F19F020F4883E20F481E0089536
:10161000843FE1F380E00895883EC0F3813FD1F735
:10162000F5CF93FB882780F90895FC018081918193
:101630000E94E20C0C94F60ACF93DF9300D000D006
:101640000F92CDB7DEB70F900F900F900F900F90C5
:10165000DF91CF910895CF93DF9300D000D000D0D9
:10166000CDB7DEB726960FB6F894DEBF0FBECDBF5E
:10167000DF91CF91089508950C943B0B0E943C0B91
:101680006093B1027093B2028093B3029093B4025C
:101690000C94DC0A08950C943E0B0F931F93009159
:1016A000B1021091B2022091B3023091B402602BCA
:1016B000712B822B932B1F910F910C943E0B0F9348
:1016C0001F930091B1021091B2022091B3023091A8
:1016D000B40260237123822393231F910F910C94F2
:1016E0003E0B0F931F930091B1021091B202209113
:1016F000B3023091B40260277127822793271F918C
:101700000F910C943E0B0C943B0B0C94830B0E949A
:10171000850B6093AD027093AE028093AF029093FD
:10172000B0020C94DC0A60E070E0CB010C94870BF3
:101730000F931F9341E050E060E070E08A019B014D
:1017400004C0000F111F221F331F8A95D2F7C90151
:10175000B8011F910F910C94870B0F931F9341E0D9
:1017600050E060E070E004C0440F551F661F771F13
:101770008A95D2F78091AD029091AE02A091AF020E
:10178000B091B0028A019B01082B192B2A2B3B2B0D
:10179000C901B8011F910F910C94870B0F931F93F0
:1017A00041E050E060E070E004C0440F551F661F48
:1017B000771F8A95D2F7CB01BA0160957095809515
:1017C00090950091AD021091AE022091AF02309140
:1017D000B00260237123822393231F910F910C94F5
:1017E000870B0F931F9341E050E060E070E004C06E
:1017F000440F551F661F771F8A95D2F78091AD025F
:101800009091AE02A091AF02B091B0028A019B010B
:10181000082719272A273B27C901B8011F910F91D3
:101820000C94870B0F931F930091AD021091AE02A1
:101830002091AF023091B002602B712B822B932B41
:101840001F910F910C94870B0F931F930091AD0282
:101850001091AE022091AF023091B002602371234B
:10186000822393231F910F910C94870B0F931F9347
:101870000091AD021091AE022091AF023091B00202
:1018800060277127822793271F910F910C94870B54
:101890000895E92FEE0FE90FEE0F8E0F982F977036
:1018A00041E001C0440F9A95EAF7869586958695A2
:1018B00095E0899FF0011124E157FD4F30E020E0D1
:1018C00070E05191DF011197CB01022E02C0969575
:1018D00087950A94E2F7817081958527842385276F
:1018E0008C932F5F3F4F2530310559F70895E92F2D
:1018F000EE0FE90FEE0F8E0F982F97708695869555
:10190000869525E0829FF0011124E157FD4F50E0BC
:1019100040E080E0219130E0092E02C03695279505
:101920000A94E2F721703327042E01C0220F0A9493
:10193000EAF7822B4F5F5F4F4530510559F7089505
:10194000BF92CF92DF92EF92FF920F931F93CF93AC
:10195000DF938C01C090AD02D090AE02E090AF0258
:10196000F090B0028091B1029091B202A091B302C6
:10197000B091B402C82AD92AEA2AFB2ACFE1D0E0E2
:10198000BC2ED701C6010C2E04C0B695A79597951D
:1019900087950A94D2F780FD0EC0219788F7B12C65
:1019A0008B2DDF91CF911F910F91FF90EF90DF90E2
:1019B000CF90BF900895B8018C2F0E9474130197A7
:1019C00061F3EECFCF93DF93EC010E94A00CBE0138
:1019D000DF91CF910C9474131F93CF93DF93EB019E
:1019E00090918E02992331F0CB01DF91CF911F911D
:1019F0000C94E20C882379F0CB010E94A00C182FE4
:101A0000682FCE010E94490CBE01812FDF91CF913A
:101A10001F910C947413CB010E94770C182FF4CFF4
:101A20001F93CF93DF93C091B50216E08091B60269
:101A30008C1304C0DF91CF911F910895D0E01C9FBB
:101A4000F0011D9FF00D1124E954FD4F408151819B
:101A500062817381848195810E942B0B2196C770CE
:101A6000E5CF4091E7025091E8026091E902709160
:101A7000EA028091EB029091EC020C942B0BFF9206
:101A80000F931F93CF93DF938091EC02807FD1F46B
:101A90008091E9028823B1F08091B5021091B602DD
:101AA0006091E7027091E802A091EA02B091EB0226
:101AB000062F0723C0916801D091690196E0F92EA5
:101AC000181306C0DF91CF911F910F91FF900895D9
:101AD00090E0109711F00F3F19F401968770F0CF46
:101AE000F89E9001F99E300D1124F901E954FD4F43
:101AF00041814713F2CF40814613EFCF428141111C
:101B0000ECCF438154814A1B5B0B4C175D0728F7D0
:101B10008091EC028F7080618093EC02F901E454B3
:101B2000FD4F80818F708061808387EE92E00E94FC
:101B3000A20ADF91CF911F910F91FF900C94100D8D
:101B4000AF92BF92CF92DF92EF92FF920F931F93CB
:101B5000CF93DF93CDB7DEB761970FB6F894DEBFB2
:101B60000FBECDBF8C0185E0F801DE011D9601900E
:101B70000D928A95E1F7F801E28087EEC82E82E0A7
:101B8000D82E6091EA027091EB026115710509F49B
:101B90004DC19091E7022091E802892F82238F3F67
:101BA00009F444C140815181A380B480F090E902DE
:101BB000F501E61BF70BBF01E0916801F0916901A7
:101BC000FF2009F404C18091EC02382F307F6E179A
:101BD0007F0708F0BDC0311179C0FE2C251323C04A
:101BE000941321C0E1101FC08F7080618093EC02BC
:101BF0000E94310DC6010E94A20A8091EC02F801F8
:101C000085838F2D61960FB6F894DEBF0FBECDBFD2
:101C1000DF91CF911F910F91FF90EF90DF90CF90C8
:101C2000BF90AF900895AB2829F0842F85238F3F74
:101C300009F015C180E0F82FF170DF2E80FF3CC065
:101C40008091B5022091B60236E0821315C04D870F
:101C50005E878D859E850E94E20C292F22952F702C
:101C60002230F0F0243018F59F70F1F0F8019581E2
:101C7000907FD1F4D12C1EC090E0389FF001399FA5
:101C8000F00D1124E954FD4F6181651306C0608198
:101C9000641303C062816E110FC001968770D5CFA7
:101CA0009F7011F0882331F3805E883018F3C801EB
:101CB0000E94A20AFD2CA5CFEE2009F4A2CF8091AC
:101CC000EC0281608093EC02F12C9BCF251314C0B1
:101CD000941312C0E11010C0F8018583C8010E945E
:101CE000A20A86E0F801A7EEB2E001900D928A9573
:101CF000E1F70E94310D85CFC8010E94150B8823A2
:101D000019F1EE2009F18091EC02803270F02091FF
:101D1000E7023091E80238872F831986BB86AA86AE
:101D20008C87CE0107960E94A20A86E0F801A7EEF2
:101D3000B2E001900D928A95E1F70E943F0D0E945A
:101D4000310DFF24F3945DCFC8010E94A20AF9CFA0
:101D5000311113C07A2DB98AA88A6E2D89890E9403
:101D60001C0B87EE92E00E94A20A86E0F601119217
:101D70008A95E9F70E94310DA7CF25130FC0941360
:101D80000DC0E1100BC0F8018583C8010E94A20AB2
:101D900086E0F60111928A95E9F733CFC8010E94D7
:101DA000150B882389F2EE2079F28091EC028032C3
:101DB00008F4BBCF2091E7023091E8023A832983EF
:101DC0001B82BD82AC828E83CE010196ACCF6E1792
:101DD0007F07F8F4FE2CEE2009F4B6CF25130BC0D4
:101DE000941309C086E0F801A7EEB2E001900D92CD
:101DF0008A95E1F706CFC8010E94150B811195CF96
:101E00008091EC0281608093EC02C8010E94A20ADA
:101E1000F8CE7A2DB98AA88A6E2D89890E941C0B6A
:101E200086E0F60111928A95E9F763CFEE2009F476
:101E30008BCFC8010E94150BF82E882309F484CF9C
:101E400086E0F801A7EEB2E001900D928A95E1F7E5
:101E500087EE92E00E94B9070E943F0D4ACF81E0D1
:101E60008E25E9CE1F93CF93DF93CDB7DEB72C97A6
:101E70000FB6F894DEBF0FBECDBF4F83588769877A
:101E80007A878B879C87CE0107960E94A00D8823B6
:101E900069F08A859B85892B39F04F815885842F7D
:101EA00085238F3F09F071C016E05FC086E0FE0118
:101EB0003796DE01119601900D928A95E1F78A8599
:101EC0009B85892B89F38F81988589238F3F61F3C7
:101ED0002091B60230E0C9010196877099274091A0
:101EE000B5024817190671F40E94F20A1092B60260
:101EF0001092B50286E0E7EEF2E0DF011D928A95CE
:101F0000E9F7D2CF96E0929FD001939FB00D1124B4
:101F1000A954BD4FFE01319601900D929A95E1F7BB
:101F20008093B6020E94100DBFCF819FC001112483
:101F300089549D4F0E94A00D8823E9F0E091B502DD
:101F40001E9FF0011124E954FD4F408151816281AF
:101F50007381848195810E942B0B8091B50290E062
:101F60000196877099278093B5028091B502909170
:101F7000B6028913DACF2C960FB6F894DEBF0FBEE7
:101F8000CDBFDF91CF911F91089569857A858B85AB
:101F90009C850E942B0B88CF682F80916A019091BD
:101FA0006B010C947C28682F80916A0190916B01E1
:101FB0000C94872880916A0190916B010C9492286F
:101FC0008091ED0285958595859508958091ED0226
:101FD000877008959091ED02977081E009F480E098
:101FE000089580911103089590911103892B809396
:101FF00011030895809590911103982390931103F4
:1020000008951092110308958091100308959091FE
:102010001003892B809310030895809590911003ED
:10202000982390931003089510921003089510922E
:102030000F0308958091EE02089508950C941D10E9
:102040009091E20392FD08C09091EE02981721F062
:102050008093EE020C941E1008958091EE02882366
:1020600029F01092EE0280E00C941E100895E09189
:102070006A01F0916B01809111038083E0916A0104
:10208000F0916B01808190911003892B8083E09106
:102090006A01F0916B01808190910F03892B8083FD
:1020A0009091EE02992381F0E0916A01F0916B0129
:1020B0008081892B808380916A0190916B010E94BD
:1020C000E82781110E942D1080916A0190916B0187
:1020D0000C94942708950C946A109091E20392FD59
:1020E00010C098E0899F90011124622B6093ED024B
:1020F0000E94AD0B8091ED028595859585950C9498
:102100006B100C94AD0B1092ED0280E00C946B10F0
:102110009091ED02809589238093ED02282F2770FE
:1021200091F4282F082E000C330B9217130659F048
:102130009091E20392FD07C08595859585950E9453
:10214000CE0B0C94831008959091E20392FB22270A
:1021500020F9281769F080FB92F99093E2038091AF
:10216000E1039091E2030E94EF1082E00C9488104A
:1021700008958091E20382FB882780F991E0892706
:102180000C94A41081E00C94A41080E00C94A41092
:102190006FEF7FEF90E080E00C94B03390E080E050
:1021A0000E948C3321E0893E9E4F09F020E0822F6F
:1021B000089582E090E00C94843383E090E00C94E6
:1021C0008433CF9384E090E00E948433C82F82E26E
:1021D00090E00E948433982F8C2FCF910895CF9355
:1021E000C92F682F84E090E00E9492336C2F82E226
:1021F00090E0CF910C949233AB01BC018FE090E062
:102200000C94A433AB01BC0183E190E00C94A433A3
:1022100060E070E0CB010C94021160E070E0CB0153
:102220000E94FC100C94081169EE7EEF90E080E0B3
:102230000E94B03360E082E090E00E94923360E060
:1022400083E090E00E9492331092B1021092B202A9
:102250001092B3021092B40260E084E090E00E9419
:10226000923360E082E290E00E94923360E085E089
:1022700090E00E94923360E086E090E00E9492330A
:102280006FEF87E090E00E94923340E050E0BA01A7
:1022900088E090E00E94A43360E08DE090E00E942E
:1022A000923340E050E0BA0188E190E00E94A4330C
:1022B00060E087E190E00E94923340E050E0BA0194
:1022C0008CE190E00E94A43370E060E080E290E056
:1022D0000E94B03340E050E0BA0188E190E00E94F3
:1022E000A4330C940D110C941411682F8EE090E01F
:1022F0000C9492330E94402960931F037093200333
:10230000809321039093220360931B0370931C031B
:1023100080931D0390931E03089585B7806885BF41
:1023200085B7806885BF0895089508950C94941129
:1023300008950C9498110E948D1183E994E10E94F4
:1023400077270E9495110C9496110C949C16089571
:1023500008950E94A7110C94A8110E942B290E9495
:1023600052140E9487150E94731B80E00E94D11BAB
:102370000C9499117F928F929F92AF92BF92CF92BD
:10238000DF92EF92FF920F931F93CF93DF93CDB71E
:10239000DEB72A970FB6F894DEBF0FBECDBF0E94FE
:1023A0001216782E81110E947A1183E1A82E83E003
:1023B000B82E10E0F12C812F0E94DD14C82EF501FB
:1023C000D1905F01D816A1F18091230381FD0E9475
:1023D000E314DC24E12C01E04501F1E08F1A9108BF
:1023E0008D2D802301F10E94A5118823A1F0EE829A
:1023F0001F8391E08C2D802309F490E098870E9440
:1024000034298160782F9A8789874E815F8168851A
:102410008A850E947B07F401808180278083F39462
:10242000F3E0FF15D8F0E394000F86E0E812D8CF70
:102430001F5F183009F0BFCFF11010C08FEF8983F4
:102440008A831B820E9434298160782F9D838C832C
:1024500049815A816B818D810E947B070E94681E91
:1024600071100E942F1D0E94591A0E94812790917D
:1024700012038917C9F00E948127809312032A96BC
:102480000FB6F894DEBF0FBECDBFDF91CF911F9185
:102490000F91FF90EF90DF90CF90BF90AF909F9003
:1024A0008F907F900C9473072A960FB6F894DEBF36
:1024B0000FBECDBFDF91CF911F910F91FF90EF9095
:1024C000DF90CF90BF90AF909F908F907F900895B6
:1024D000CF93DF930E947813EC01811521E59207D9
:1024E00008F042C0811530E5930708F09DC0883E92
:1024F000910530F5803E910508F092C0883A91052B
:1025000088F4853A910508F084C08130910509F47A
:1025100087C0009709F484C0049708F081C0D0E018
:10252000C0E07EC08F3B9105D0F7C85AD0E0CC0FF9
:10253000DD1FC55DDD4F0990D881C02DD46470C00A
:102540008115904250F4C11581E0D80708F068C0A9
:10255000CD3ED10520F3D06563C0C11590E4D90705
:10256000F0F2DF70D06A5CC0811525E5920700F5B6
:10257000811534E5930708F08BC0811543E5940776
:1025800008F073C0C11582E5D80708F469C0CE0110
:102590008370992721E030E002C0220F331F8A9513
:1025A000E2F7C695C69580E2C89FE001112454C0A9
:1025B000C11599E5D907A8F4C11528E5D20708F097
:1025C0006CC0C11536E5D30708F0A9CF8C2F0E9447
:1025D0000F14C82FD0E0DC2FCC27CC27DF71D062BE
:1025E0001FC0C1154AE5D40708F45CC0CE0190565F
:1025F0008115904208F093CF8D2F8F710E940F1498
:1026000090E0982F882788279F719C012C2BE90147
:10261000E6CFC55AD0E0C75ADD4FC881D0E0D064BC
:10262000CE01DF91CF910895E4E096958795EA95E4
:10263000E1F783702C2F26952695237040E2249F86
:1026400090011124382B8C2F8370C1E0D0E002C0A0
:10265000CC0FDD1F8A95E2F7C22BD32BDC68E0CFCD
:10266000DC2FCC27C16FD06ADBCF8370992721E0A4
:1026700030E002C0220F331F8A95E2F7C695C69557
:1026800090E2C99FE0011124C22BD32BDA68C8CF96
:10269000D82FCC27C46FD06AC3CFDC2FCC27C06F14
:1026A000D06ABECF8C2F8F700E940F1434E0D69565
:1026B000C7953A95E1F7CF709C2FEC01D069B0CF68
:1026C000972F70E026E0929F600D711D1124FB0191
:1026D00090E3899FE00DF11D1124EE0FFF1FED50D7
:1026E000FF4F8591949108950E9460130C94681295
:1026F00082389105B1F1B0F48133910509F475C0C8
:1027000048F48932910509F469C08A32910509F4C7
:1027100073C008958533910509F459C08933910533
:1027200001F10895833E9105A9F138F4803E9105A9
:10273000F9F0823E910549F10895863E9105A9F18F
:10274000873E9105C9F1843E910519F52091E20378
:1027500021FF1FC08091E10384FD14C087EE90E04B
:1027600008952091E1032370A1F080EE90E0089598
:102770002091E10320FD47C03091E20330FF09C002
:1027800024FF44C090E080E004C02091E10322FDDA
:10279000F7CF08952091E10322FD3BC03091E20381
:1027A00030FDE3CF24FFF5CFEDCF2091E10323FFF0
:1027B000F0CF24FDE7CFD2CF2091E10323FD2CC041
:1027C0003091E20331FFEECF84EE90E00895209146
:1027D000E10325FFDECF89E290E008952091E10337
:1027E00025FFD7CF85E390E008952091E10326FFF0
:1027F000D0CF8AE290E008952091E10326FFC9CF6F
:1028000081E390E0089589E390E0089583EE90E0FD
:10281000089582EE90E0089586EE90E008959091FC
:10282000E10392FF06C0282F28712830F9F4877F32
:10283000846093FF06C0282F28712831F1F4877E29
:1028400084612091E20320FF06C0382F38713830B0
:10285000D9F4877F816021FF06C0282F2871283195
:10286000D1F4877E816194FD877E0895282F24719D
:102870002430F9F68B7F8860DCCF282F2471243137
:1028800001F78B7E8861DDCF382F3171313019F738
:102890008E7F8860E0CF282F2171213121F78E7E35
:1028A0008861E1CF1092DD031092DE031092DF0306
:1028B0001092E0030895CF92DF92EF92FF926B01A6
:1028C0007C010E949C1681110EC00E944029C61AEC
:1028D000D70AE80AF90AC092DD03D092DE03E0923B
:1028E000DF03F092E003FF90EF90DF90CF90089528
:1028F0000F931F930E949C16882321F01F910F9124
:102900000C9440290E9440290091DD031091DE03C0
:102910002091DF033091E003600F711F821F931F2E
:102920001F910F91089580E008950C94C8100E94A3
:1029300012168FE39CE90197F1F700C000000E9496
:1029400012160E94B416811109C084E00E94DD14A1
:1029500081FF06C00E9495140C949B2980E0F6CF5D
:1029600008950C9497140E94CE10811102C00E9409
:1029700073110E94D910809323030E94E110909359
:10298000E2038093E1030E94B1140E94DD10682FDE
:1029900070E090E080E00E944B0B6091AD0270917E
:1029A000AE028091AF029091B0020C94850B089515
:1029B0000C94D71408950C94DA14E82FF0E0E55144
:1029C000FC4F80810895089580EA8A95F1F7089573
:1029D00000C008950C94E414F894E82FE295EF7089
:1029E000F0E031A1282F2F7081E090E001C0880F26
:1029F0002A95EAF7982F9095932391A392A1892B7A
:102A000082A37894089508950C940315CF93DF93CF
:102A100084E90E94EC1486E60E94EC1487E90E9487
:102A2000EC1486EC0E94EC14CCE5D2E089918F3F47
:102A300011F00E94EC1482E0C236D807B9F7DF919A
:102A4000CF910895CF92DF92EF92FF920F931F9351
:102A5000CF93DF93EC01D62E062F10E0C8018E59DC
:102A60009D4F7C01FC0180818F3F09F445C0F894A3
:102A7000E82FE295EF70F0E091A18F7021E030E057
:102A800001C0220F8A95EAF7892F822B81A382A1A8
:102A90002095282322A378940E94E814ECE5F2E024
:102AA00042E652E031E0C12C21912F3F71F1A22F7B
:102AB000A295AF70B0E090968C9190E02F7002C01C
:102AC000959587952A95E2F780FD1FC0832FC82A28
:102AD000330F4E175F0741F7F70180818F3F11F0E9
:102AE0000E94EC1461E0C11001C060E08D2D0E94D5
:102AF000EA14C00FD11FC882DF91CF911F910F91AF
:102B0000FF90EF90DF90CF90089580E0E0CF0E949B
:102B1000B61680916C0180916C0194E0811190E077
:102B20009093F40384E0891B8093F3030E940615BD
:102B300088E0EBEEF3E0DF01982F1D929A95E9F71C
:102B4000E3EEF3E0DF011D928A95E9F784E00E944D
:102B500065160E94DE060C94C016EF92FF921F933A
:102B6000CF93DF9300D000D0CDB7DEB70E949C1684
:102B7000182F6091F403882309F447C019821A8240
:102B80001B821C82862F90E09E012F5F3F4F7901B0
:102B9000B90185519C4F0E94CE168823E9F080919F
:102BA000F30390E044E050E0B70185519C4F0E9450
:102BB000CF3021E020932403892BC9F410E00E9438
:102BC000E406812F0F900F900F900F90DF91CF911F
:102BD0001F91FF90EF90089580912403882371F353
:102BE00084E0F70111928A95E9F710922403E091AD
:102BF000F303F0E0E551FC4F89819A81AB81BC8100
:102C000080839183A283B383DACF70E065517C4FD8
:102C10008091F30390E085519C4F0E945B170E94C6
:102C20000415CFCFEF92FF920F931F93CF93DF93B3
:102C3000CDB7DEB728970FB6F894DEBF0FBECDBF75
:102C40008E010F5F1F4F88E0F80111928A95E9F716
:102C5000F12C6F2DC8010E942215F394F4E0FF12AD
:102C6000F8CF48E050E0B80183EE93E00E94CF3007
:102C70007C0121E0892B09F420E0E114F10441F00A
:102C800088E0F801A3EEB3E001900D928A95E1F798
:102C90006091F40370E065517C4F44E083EE93E073
:102CA0000E94661681E090E0EF2811F40E94AD15B5
:102CB00028960FB6F894DEBF0FBECDBFDF91CF913F
:102CC0001F910F91FF90EF9008950895FF920F9339
:102CD0001F93CF93DF93F82E092F162FD72FC42FD2
:102CE000222349F081E0809327030E9434299093A6
:102CF000260380932503809127038823A1F08091E8
:102D00002503909126030E944C29059760F0EF2D32
:102D1000F02FA12FBD2FCE0FDF2FD11DEC17FD07F8
:102D200041F410922703DF91CF911F910F91FF90F3
:102D3000089581918D93F2CF80912A03811107C06C
:102D40000E947F30882351F081E080932A0381E044
:102D500090912A03913009F080E0089582E08093F9
:102D60002A030E947A30F3CF0C949C160E94B4166A
:102D700080936C010E949C1681110C940417089595
:102D80000E949C16811102C00C940617089581E0E0
:102D900090912B039A3008F080E008950F931F93D1
:102DA000CF93DF93EC018B0180912B038A30B8F431
:102DB000B801CE010E945917C82F811122C08091FD
:102DC0002B038F3FB9F40E943429909329038093F9
:102DD00028038C2FDF91CF911F910F91089580913F
:102DE0002803909129030E944C29843F914000F7C9
:102DF000C0E0EFCF8F5F80932B038A3020F7C1E0D4
:102E0000E8CF10922B03E5CF0C94B6250C94B9258E
:102E1000EF92FF920F931F93CF93DF937901C82F07
:102E2000880FDD0B41155105A9F08AE08C9FF00158
:102E30008D9FF00D1124E359FE4F83819481845DB1
:102E40009C4F228130E04217530708F49A01A901F0
:102E50000E94DC30CE010E94C326892B11F501159A
:102E60001105E9F08AE08C9FF0018D9FF00D11248F
:102E7000E359FE4F458150E00417150708F4A801F7
:102E80008AE08C9FF0018D9FF00D1124E359FE4FD5
:102E900066817781645D7C4FC7010E94DC3081E0F0
:102EA00001C080E0DF91CF911F910F91FF90EF90D3
:102EB00008950C9479180C9495180F931F93CF9341
:102EC000DF9300D000D0CDB7DEB7609141037091A1
:102ED000420380914303909144030E945B2911E0D7
:102EE000643671058105910518F10E9478146E5FB2
:102EF0007F4F8F4F9F4F69837A838B839C8310E032
:102F000000E030E020E044E050E0BE016F5F7F4F22
:102F100082E00E940817182F882351F00E94402950
:102F2000609341037093420380934303909344035F
:102F3000812F0F900F900F900F90DF91CF911F91E5
:102F40000F910895AF92BF92CF92DF92EF92FF92CE
:102F50000F931F93CF93DF9300D000D00F92CDB784
:102F6000DEB75B01E0906A02F0906B0201E010E0D6
:102F70009E012B5F3F4F50E040E070E060E080E05A
:102F80000E940817182F882309F44BC067018FEFA0
:102F9000C81AD80A60913D0370913E0380913F03A7
:102FA000909140030E945B2964367105810591056B
:102FB00080F104E010E09E012F5F3F4F50E040E0C1
:102FC00070E060E081E00E940817F82E64E070E095
:102FD000C6010E94741B11E09D81981310E01F210F
:102FE00059F10E94402960933D0370933E03809302
:102FF0003F039093400389819A81AB81BC81809388
:10300000390390933A03A0933B03B0933C0311E040
:1030100013C064E070E0C6010E94741B9D81891397
:10302000C8CFF70181819281A381B48189839A837A
:10303000AB83BC831111DFCF8091390390913A03A8
:10304000A0913B03B0913C03F50180839183A2835F
:10305000B383812F0F900F900F900F900F90DF91FF
:10306000CF911F910F91FF90EF90DF90CF90BF9085
:10307000AF900895AF92BF92CF92DF92EF92FF92FE
:103080000F931F93CF93DF937C015B016A010E9432
:10309000C71601E010E0882311F00AE010E0C1E05B
:1030A000D0E0F894B501C701F60109957894811133
:1030B00004C021960C171D075CF4DF91CF911F917E
:1030C0000F91FF90EF90DF90CF90BF90AF90089559
:1030D000CC9F9001CD9F300D300D112490E080E009
:1030E00045E34A95F1F70000019682179307C1F76F
:1030F000D8CF0F931F93CF93DF93EC018B0142EA5C
:1031000057E10E943A18882351F04DE557E1B80184
:10311000CE01DF91CF911F910F910C943A1880E06E
:10312000DF91CF911F910F9108950F931F93CF932C
:10313000DF93F894C0916A02D0916B02CE010196A0
:1031400024E0FB01DC0101900D922A95E1F764E097
:1031500070E00E94741B88837894F8946D817E815E
:103160008F819885009135031091360320913703A4
:1031700030913803601771078207930751F060930D
:1031800035037093360380933703909338030E947E
:103190005B147894DF91CF911F910F9108950E9455
:1031A0004E2B0E94AD110C945A2B0E945E2B0E9454
:1031B000BA110C94782B0E94BE280E94352B0E94D5
:1031C0009B110E94CF180E94D5180E94A911FBCF15
:1031D00080914B0380FF12C06091900185E0689F51
:1031E000B0011124759567957595679560387105DF
:1031F000A8F561157105A1F1862F089581FF09C019
:103200006091900185E0689FB001112475956795E4
:10321000EDCF6091900182FD0AC080914A0388231E
:10322000D1F090918F0160919001891728F085E08D
:10323000689FB0011124DACF869FB001112485E088
:10324000869F9001879F300D1124692F70E0C9017E
:103250000E94AC30CBCF65E070E0CECF8FE7089511
:1032600081E0089580914B0380FF0CC060918C0138
:1032700070E075956795759567956115710549F1CC
:10328000862F089581FF06C060918C0170E07595CE
:103290006795F3CF60918C0182FD0BC0909149033B
:1032A0009923A1F060918B0180918C01961738F0E1
:1032B000682F70E06038710500F38FE70895899FEB
:1032C000C001112470E00E94AC30F4CF61E070E0E6
:1032D000D7CF81E008958D3E31F40E94E8188195A2
:1032E00080934F0308958E3E19F40E94E818F8CF9A
:1032F0008F3E31F40E94E818819580934E03089523
:10330000803F19F40E94E818F8CF893F29F40E9401
:1033100032198093500308958A3F21F40E94321994
:103320008195F7CF8B3F31F40E94321981958093BC
:10333000510308958C3F19F40E943219F8CF9FE091
:10334000980F983070F4815F990B21E030E001C054
:10335000220F8A95EAF780914D03822B80934D03CB
:1033600008958D3F31F480914B03816080934B032E
:1033700008958E3F21F480914B038260F7CF8F3FF9
:10338000B9F780914B038460F1CF40914E038D3E9D
:1033900059F480914F0387FF0DC010924F034111E4
:1033A0000BC010924A0308C08E3E81F480914F03F7
:1033B00018169CF3442381F080915003909151039F
:1033C000892B09F05AC01092490308958F3E49F4A1
:1033D00047FFF0CF10924E0380914F038111ECCF45
:1033E000E0CF803F19F41416ACF3E4CF9091500372
:1033F000893F29F41916F4F610925003DBCF8A3F67
:1034000019F497FFD7CFF8CF909151038B3F29F450
:1034100097FFD0CF10925103CDCF8C3F19F41916DE
:10342000CCF3C8CF9FE0980F983090F4815F990B50
:1034300021E030E0B90102C0660F771F8A95E2F7FC
:10344000CB01809590914D03892380934D03B2CF9A
:103450008D3F31F480914B038E7F80934B03AACF35
:103460008E3F21F480914B038D7FF7CF8F3F09F082
:10347000A1CF80914B038B7FF0CF08950E94342918
:103480009C0190914E0380914F03982B21F0309333
:103490004803209347039091500380915103982B48
:1034A00021F030934603209345038CE493E00C9481
:1034B000AE27EF92FF920F931F93CF93DF9300D02D
:1034C00000D000D0CDB7DEB786E0ECE4F3E0DE015B
:1034D000119601900D928A95E1F7E0904E03F090DD
:1034E0004F03009150031091510310924E0310921C
:1034F0004F0310925003109251038E2D8F2991F09B
:1035000080914703909148030E944C29AC0190910F
:103510004A03992309F43FC080919101841715064D
:1035200008F447C0802F812B91F080914503909142
:1035300046030E944C29AC0190914903992309F458
:1035400077C080918D018417150608F47FC08091A3
:103550004E0390914F03892B90915003892B9091AA
:103560005103892B11F00E943E1A86E0FE0131962C
:10357000ACE4B3E001900D928A95E1F726960FB680
:10358000F894DEBF0FBECDBFDF91CF911F910F9199
:10359000FF90EF900895209192018AE0289F90017A
:1035A00011242417350708F0BDCF9F5F90934A037D
:1035B00002C09F3FD1F7EE2059F00E94E8189FEF1C
:1035C0001E140CF491E0899F802D112480934E03EA
:1035D000FF2059F00E94E8189FEF1F140CF491E0AF
:1035E000899F802D112480934F0330914E03332304
:1035F00009F498CF20914F03222309F493CF45EB90
:103600003403C0011124992359F090934E0345EBE4
:10361000240390011124332339F030934F0382CFD8
:1036200081E080934E03F3CF81E080934F037ACF04
:1036300020918E018AE0289F9001112424173507DC
:1036400008F085CF9F5F9093490302C09F3FD1F759
:10365000002359F00E9432199FEF10160CF491E0EC
:10366000899F802D112480935003112359F00E94CB
:1036700032199FEF11160CF491E0899F802D1124CF
:103680008093510330915003332309F460CF20918C
:103690005103222309F45BCF45EB3403C00111240D
:1036A000992359F09093500345EB24039001112482
:1036B000332339F0309351034ACF81E08093500394
:1036C000F3CF81E08093510342CF86E0ECE4F3E056
:1036D000DF011D928A95E9F710924A03109249037F
:1036E00010924B0308950895FC01680F791F8FEF26
:1036F00091E36E177F0709F408952191822728E04E
:1037000030E087FF06C0880F892721503109C9F7AB
:10371000F0CF880FFACFCF92DF92EF92FF920F9304
:103720001F93CF93DF936C017B0164E670E088E721
:103730000E945424EC0197FD12C010E000E0F60155
:10374000E00FF11F849164E670E00E94CE24EC014A
:10375000892B29F40F5F1F4F0E151F0581F70E945B
:103760005125CE01DF91CF911F910F91FF90EF90E6
:10377000DF90CF9008950895E6EFF3E080E092E0C7
:10378000DF019C011D9221503040E1F7F093FD05CF
:10379000E093FC058FEF9FEF90937E0380937D0372
:1037A00008950E94BB1B0E94A8058093790380FDA9
:1037B0000FC080E8809378030E944E246DE070E093
:1037C0008AE094E00E948B1B892B21F080E0089511
:1037D00080E2F0CF8091790363E070E081FD26C044
:1037E00087E094E00E948B1B892B81F76DE070E0ED
:1037F00087EF93E00E948B1B892B41F70E944029A1
:10380000605A75418F4F9F4F6093F8057093F9058B
:103810008093FA059093FB050E94BC1B81E0809386
:103820007C0380937B0310927A03089584E094E0F4
:10383000D9CF2091780336E0839FC0011124629F85
:10384000800D911D1124811522E0920714F090E063
:1038500080E08A509C4F9093FD058093FC0508956D
:103860002091FC053091FD05205F334040917803A5
:10387000642F70E0C9010E949830481B463010F454
:10388000240F311D211582E0380710F030E020E0D0
:103890002A503C4F3093FD052093FC0508951F935B
:1038A000CF93DF93162F8A3031F481E0DF91CF91EF
:1038B0001F910C94C91C8D3011F480E0F7CFC0919A
:1038C000FC05D091FD0596E0FE01A2E5B3E0019074
:1038D0000D929A95E1F7803EC8F086E0FE011192C4
:1038E0008A95E9F711111EC0C091FC05D091FD0524
:1038F00046E050E0BE0182E593E00E94CF30892B84
:10390000F9F4DF91CF911F910C94301CF6E08F9F5A
:10391000B0011124695E7B4F46E050E0CE010E9469
:10392000C630E0CFE091FC05F091FD059F012A5FD4
:103930003F4F2E173F07C1F2808180958193F9CFC9
:10394000C65FD340CE0125E0969587952A95E1F78D
:1039500021E030E0A90102C0440F551F8A95E2F72B
:10396000CA0140917D0350917E03842B952B2596AF
:1039700045E0D695C7954A95E1F702C0220F331F5F
:10398000CA95E2F7822B932B90937E0380937D035D
:10399000B8CFCF93382FE091FC05F091FD05E65F9D
:1039A000F34020917803622F70E0CF010E9498309D
:1039B000281B822F332369F066E00E948C30C82FC9
:1039C000C15010F4CF91089560E080E20E944F1C36
:1039D000F7CF9F01280F311D2115324018F080E0EC
:1039E000F0E0E0E08E0F9F2F911D8A509C4F909346
:1039F000FD058093FC05E6CFFF920F931F93CF93B5
:103A0000DF93EC01F62EFC0101900020E9F78F0115
:103A100001501109C017D10730F0DF91CF911F91EC
:103A20000F91FF9008956F2D89910E944F1CF2CF46
:103A30001F93CF93DF93EC01162FFE018491811128
:103A400004C0DF91CF911F910895612F0E944F1CF8
:103A50002196F3CF0E94181D81E00C94C91C80911F
:103A60007C03811103C080917B0308950E9440294B
:103A7000605A75418F4F9F4F6093F8057093F90519
:103A80008093FA059093FB0580917B038111EBCF26
:103A900062E070E085EF93E00E948B1B892B19F7A1
:103AA00081E080937B03DFCF2F923F925F926F92F2
:103AB0007F928F929F92AF92BF92CF92DF92EF92BE
:103AC000FF920F931F93CF93DF9380917C03882302
:103AD00069F020917D0330917E032115310531F08D
:103AE00080917A0361E070E0882399F0DF91CF91B3
:103AF0001F910F91FF90EF90DF90CF90BF90AF900C
:103B00009F908F907F906F905F903F902F9008953F
:103B10008F5F082F10E01B01082E02C0220C331CFF
:103B20000A94E2F7A90142215321452B89F3909190
:103B3000790390FD44C08295880F8076809395012B
:103B40009801369527953695279520939801815EA3
:103B5000809396011092990124E630E047E050E00E
:103B600063E971E088E70E94FD24892B09F0BECF4C
:103B7000A80125E0440F551F2A95E1F780917903AC
:103B800080FD2BC04A505C4F04E610E020E230E09C
:103B900060E488E70E942425892B09F0A7CF0E94C2
:103BA0002F1DE101C095D09580917D0390917E03FA
:103BB000C823D923D0937E03C0937D0397CF880F6A
:103BC000880F880F8093950110929801895F8093E8
:103BD000960183E080939901BFCFE8E5F3E080E2AE
:103BE000DF011D928A95E9F7A0E7B2E00CE612E04A
:103BF00084E7C82E82E0D82E97E0592E772473945C
:103C00008D91E80129918E01240F352F311D2A5005
:103C10003C4FE82FF0E0E85AFC4F90E080E0652C44
:103C2000681A872C082E01C0880C0A94EAF77901DB
:103C3000A12CE701B9907E01B820662D6A19677042
:103C4000962E062E000C770BDB2D01C0DD0F9A940B
:103C5000EAF77195619571096770772701C0B6948D
:103C60006A95EAF7BD2A6081962E9B289082A394DC
:103C700068E0A612DECF019631968830910579F67C
:103C8000CA16DB0609F0BCCF04E610E020E230E003
:103C900048E553E07DCF80917B0390917C039111A7
:103CA00003C091E089270895882369F062E070E0FD
:103CB00083EF93E00E948B1B892B19F080917B038B
:103CC000089510927B0380917B03EBCF0C941D062B
:103CD0000F931F9380917C03882389F18091F605CF
:103CE0009091F7050E944C29C29760F00E943429F8
:103CF0009093F7058093F60560E080E00E94191C20
:103D00000E94661E0E94541D80917B038823B9F097
:103D10000E9440290091F8051091F9052091FA05BB
:103D20003091FB05601B710B820B930B6F3F7F4F34
:103D30008F4F9F4720F41F910F910C944B1E1F91A2
:103D40000F910895CF93DF93EC01FB0182818823CB
:103D500009F420C1C430FDE5DF07C8F5CB3F9CE581
:103D6000D90730F49E0122503C452431310598F5A5
:103D70000E94E1109093E2038093E103C031FCE5DF
:103D8000DF0709F4E0C008F061C0C8309CE5D9073E
:103D900009F4CBC088F5C430FCE5DF0709F4B3C0F3
:103DA000E8F4C2309CE5D90709F4A7C08091E1038B
:103DB0008260C330DC4509F4A3C08091E103909197
:103DC000E2030E94EF100E94F20A80E004C0C236B3
:103DD000EDE5DE0769F2DF91CF9108958091E1036F
:103DE0008061C630FCE5DF0709F48AC008F48FC0A3
:103DF0008091E103806284C08091E1038D7FCC30AB
:103E00009CE5D90709F47CC070F48091E1038C60D3
:103E1000CA30FCE5DF0709F473C008F48AC080915A
:103E2000E1038E7F6DC08091E103877FCE309CE5FA
:103E3000D90709F465C08091E1038B7FCF30DC4561
:103E400008F45EC08091E1038F7E5AC0CD3FFCE54F
:103E5000DF0709F474C040F5C4319CE5D90709F4C3
:103E60008AC058F4C231FCE5DF0709F474C008F4D5
:103E70006EC08091E103837F43C0CB3F9CE5D907AF
:103E800009F449C008F04DC0C531DC4509F095CFB3
:103E90008091E10382FB992790F921E0922790FB22
:103EA00082F990FB83F92CC0C1308DE5D80709F465
:103EB00058C088F48091E2038360CF3FECE5DE07D1
:103EC00069F18091E2038D7FC115DD4538F1809164
:103ED000E2038C7F23C0C3308DE5D80709F458C0B6
:103EE00008F452C0C236DD4509F067CF9091E10376
:103EF000892F8F7E94FF806103C08091E1038160F0
:103F00008093E1035ACF8091E1038460F9CF8091DF
:103F1000E1038860F5CF8091E20381608093E20342
:103F20004CCF8091E2038260F9CF8091E1038064FD
:103F3000E7CF0E94F20A8091E1038068E1CF80918F
:103F4000E2038E7FEBCF8091E1038F7DD9CF80910B
:103F5000E1038F7BD5CF0E94F20A8091E1038F7736
:103F6000CFCF8091E203982F909591708E7F892B0F
:103F700090FB81F9D3CF0E94F20A9091E103892F3F
:103F800097FB87F98058BCCF81E00E94751115CF4F
:103F900080E0FBCF81E01FCF80919A01877F8093E3
:103FA0009A0182E00E940D1080919A0184FF06C060
:103FB0008F7E80939A0182E00E94F40F80919A0193
:103FC00085FF06C08F7D80939A0180E20E94F40FE6
:103FD0000C94371080E008958B32910591F040F4F5
:103FE0009C012E5131092A30310558F00C94EA1FFA
:103FF0008D329105D8F38933910518F084369105F7
:10400000A9F781E00895CF93DF93EC01662319F0BF
:1040100082E00E940710CE019056811520E292079F
:1040200020F0905E8115904108F4DD27CE01DF91EC
:10403000CF910C945F069C013056211540E2340765
:1040400020F0305E2115304108F499270C94760653
:10405000FC0123E0F695E7952A95E1F7EE71FF273D
:10406000E158FC4F20813181AC014F70552781E030
:1040700090E002C0880F991F4A95E2F7662329F065
:10408000822B932B91838083089580959095822332
:104090009323F8CFFC0123E0F695E7952A95E1F705
:1040A000EE71FF27E158FC4F8F70992721E030E037
:1040B00002C0220F331F8A95E2F780819181282365
:1040C000392381E0232B09F480E00895EF92FF92D9
:1040D0000F931F93CF93DF93EC017B018A018091B3
:1040E0009A0182FF5DC02091A5033091A6032C1791
:1040F0003D0719F0209709F053C090919A019B7FDA
:1041000090939A0161E091FD10C08091A703909176
:10411000A803A701481B590B61E080919B01909176
:104120009C014817590708F460E0617080919A017A
:1041300060FB81F980939A01C9010E9428200E94A6
:10414000F10F81FF08C080919A01806180939A01EC
:1041500082E00E94FA0F0E94F10F85FF08C0809153
:104160009A01806280939A0180E20E94FA0F609126
:104170009A0166956170A8018091A5039091A603AC
:104180000E94032060919A0166956170A801809158
:10419000A5039091A6030E941B200E94CC1F0FC074
:1041A000CE010E944A20A801682FCE010E941B2048
:1041B0008091A5039091A603C817D90771F3F092D7
:1041C000A803E092A703DF91CF911F910F91FF9079
:1041D000EF90089580919A0182FF19C00E943429BE
:1041E0002091A7033091A803AC01421B530B2091EF
:1041F0009B0130919C014217530748F04FE953E06F
:10420000BC018091A5039091A6030C9466200895AB
:1042100090919A01892F8E7F90FF816080939A01FF
:104220000C94CC1F80919A018E7F80939A010C94FC
:10423000CC1FCF92DF92EF92FF921F93CF93DF9329
:10424000EC017B010E9434296C01F70182818823F3
:10425000D1F180919A0182FF07C04FE953E0B60186
:1042600090E080E00E946620CB31FCE5DF0711F191
:10427000CC312CE5D20721F1CA318CE5D80711F4F5
:104280000E940821CE0190568115E0E29E0720F0A1
:10429000905E8115904128F51092A6031092A50317
:1042A00011E0812FDF91CF911F91FF90EF90DF9070
:1042B000CF90089580919A01816080939A01E2CF16
:1042C0000E941221DFCF80919A018F7EC13ED105DD
:1042D00031F0C53ED105A1F580919A018F7D809383
:1042E0009A0180919A0180FFDBCFB701CE010E9435
:1042F000EC1FF7011281882309F461C0112309F42E
:1043000058C00E94F10F182F0E941A10812B8D7F28
:1043100019F11092A6031092A50360E0CE010E944D
:104320002820A70160E0CE010E9403200E941A10FD
:104330008D7F0E94201082E00E94881010E0B1CF93
:10434000CE0190568115904208F4AACFCE01905428
:104350008115904130F6A4CF86E0F701AFE9B3E0D4
:1043600001900D928A95E1F71092A1031092A30398
:104370001092A2030E94F10F182F0E941A10812B95
:1043800090919A0181FB91F990939A010E941A10E1
:104390008D7F0E942010D093A603C093A503D092D6
:1043A000A803C092A70380919A01846080939A0128
:1043B000C2CFA701B601CE010E94662072CF1111B3
:1043C0006BCF6ECFCF93DF93EB0186319C4511F518
:1043D0000E94F10F9A81992399F08A7A91E009F469
:1043E00090E09093A903811109C089E20E94CC0F4B
:1043F0000E94371080E0DF91CF91089585E3F6CFDA
:104400008091A903811104C089E20E94D30FF0CFEB
:1044100085E3FBCF81E0EFCF0F931F93CF93DF9323
:10442000C42FD22FFC0182818823C9F04093AC03B2
:104430000E9434299093AB038093AA0380E28C0FEF
:10444000883008F050C0C77081E001C0880FCA955D
:10445000EAF7DF91CF911F910F910C945A081091B8
:10446000AC03141335C08091AA039091AB030E9452
:104470004C29883C910560F5C0E2CD0F1D17B9F0BD
:1044800080E2810F883040F4177081E001C0880F0E
:104490001A95EAF70E946108C83048F481E09D2F20
:1044A000977001C0880F9A95EAF70E945A08802FEA
:1044B0000E945208C830B8F4D77081E001C0880F5C
:1044C000DA95EAF7DF91CF911F910F910C94610873
:1044D00080E28C0F883038F4C77081E001C0880F0B
:1044E000CA95EAF7EFCFDF91CF911F910F91089511
:1044F0000F939C01CB01243F4CE5340759F1A8F4FC
:10450000293DFCE53F0701F12A3D4CE53407D1F197
:10451000283D3C4591F406E221EE41EE68ED7CE554
:104520000E940C2280E00F910895263FFCE53F0792
:10453000E9F0B0F0273F3C45F9F0FC018281882387
:1045400039F11092AC03EFCF07E225EE45EE69EDAD
:104550007CE5E6CF06E221EE40EE64EF7CE5E0CFBD
:1045600007E225EE44EE65EF7CE5DACF06E221EEC8
:1045700042EE66EF7CE5D4CF07E225EE46EE67EF2C
:104580007CE5CECF08E221E045EE6AED7CE5C8CFC0
:1045900081E0C9CFCF93DF93EC0181E0898B8F81DC
:1045A0000E94F40F88850E9407100E943710EA814C
:1045B000FB81309739F06C897D89CE010696DF91B9
:1045C000CF910994DF91CF910895CF93DF93EC01C0
:1045D0008881823039F4FB01828193810E945F06D9
:1045E00081E08B87DF91CF910895FC01808181303C
:1045F00029F4FB01808191810C945F06823021F4C3
:10460000FB0182819381F8CF0895FC018081813084
:1046100029F4FB01808191810C947606823021F48B
:10462000FB0182819381F8CF0895EF92FF920F935F
:104630001F93CF93DF93EC018A85811134C0EB8007
:10464000FC8087E5F81A26E12E9DC0012F9D900D74
:104650001124DC01A050BF4F1496ED91FC911597E9
:10466000309731F054966D917C918A5F9E4F0995F9
:1046700086E18E9D80018F9D100D112400501F4FEB
:10468000F80187810E94FA0FF80180850E940D10C1
:104690000E943710188219861B861E821D82109276
:1046A000AE031092AD03DF91CF911F910F91FF9058
:1046B000EF900895DF92EF92FF920F931F93CF93A5
:1046C000DF937C01FB018281882399F080919D0119
:1046D00090919E01019669F0C0E0D1E010E000E009
:1046E000DD24D39480919D0190919E0180179107C4
:1046F00044F4DF91CF911F910F91FF90EF90DF90E5
:1047000008958E818823D9F089859A858E159F0515
:1047100039F48091AD039091AE038E159F0579F029
:10472000DF86FC86EB868989811103C0CE010E9459
:10473000CA22CE0106960E9415230E9414100F5F14
:104740001F4F6696CFCFEF92FF920F931F93CF9399
:10475000DF937C0197558F3F910509F0E0F520919B
:104760009D0130919E012817390724F490939E01F2
:1047700080939D01FB01228136E1389F8001399FA2
:10478000100D1124E801C050DF4F288B92818E81DB
:10479000992349F1FA86E9868F5F8E830E94342936
:1047A0009E878D870E941A108F830E94F10F888741
:1047B0000E9404109885892B8887E881F9813097B9
:1047C00031F06C897D89C8018A5F9E4F0995F0920E
:1047D000AE03E092AD0381E0DF91CF911F910F9185
:1047E000FF90EF9008958823B1F38989882399F386
:1047F000C8018A5F9E4F0E941523EDCFEF92FF9272
:104800000F931F93CF93DF9380919D0190919E0111
:1048100010E006E10196C1F5DF91CF911F910F9154
:10482000FF90EF900895089FF001099FF00D11246B
:10483000E050FF4FE288F388E114F10419F428EC0A
:10484000E22EF12C089FE001099FD00D1124C050E9
:10485000DF4F8E818823B9F08D859E850E944C297B
:10486000E816F90680F4109F7001112489898111DE
:1048700005C0C70180509F4F0E94CA22C7018A5FAE
:104880009E4F0E9415231F5F812F90E020919D0174
:1048900030919E012817390734F6BECF1092B90027
:1048A0008CE08093B80008959F92AF92BF92CF9210
:1048B000DF92EF92FF920F931F93CF93DF93B82E67
:1048C000EB010E9434296C01EE24E394F12CC431F5
:1048D000D10560F025E0E22EF12CCF3FDC0731F06E
:1048E000CE0164E170E00E9498307B0184EAA82E3A
:1048F00094E8992E1092BC00A092BC000E9434292A
:104900008C018091BC0087FF0DC08091B900887F29
:10491000883039F18091B900887F803111F10FEF33
:104920001FEF09C00E943429801B910B8E159F0533
:1049300040F30EEF1FEFCF3FDC07E1F2C6010E940C
:104940004C298C179D07B0F2C801DF91CF911F91C0
:104950000F91FF90EF90DF90CF90BF90AF909F901E
:104960000895B092BB009092BC000E9434298C0143
:104970008091BC0087FF0AC08091B900887F883190
:1049800011F0803461F610E000E0DECF0E9434299F
:10499000801B910B8E159F0558F3CBCF0F931F9360
:1049A000CF93DF93EB018093BB0084E88093BC003E
:1049B0000E9434298C018091BC0087FF11C0209196
:1049C000B900287F81E090E0283211F490E080E087
:1049D000919581959109DF91CF911F910F91089544
:1049E000CF3FDC0741F30E943429801B910B8C17C9
:1049F0009D0708F38EEF9FEFEECFCF92DF92EF92FD
:104A0000FF920F931F93CF93DF936B018A0179017C
:104A1000B9010E945424E6010C0D1D1DC017D107D9
:104A200061F424E92093BC00DF91CF911F910F9195
:104A3000FF90EF90DF90CF90089597FDF2CFB701F0
:104A400089910E94CE24EACFCF92DF92EF92FF921B
:104A50000F931F93CF93DF93C62F6A017901B8019B
:104A60000E94542497FD0CC0B8018C2F0E94CE24C4
:104A7000E601EC0CFD1CCE15DF0511F097FF0CC014
:104A800024E92093BC00DF91CF911F910F91FF90FB
:104A9000EF90DF90CF900895B80189910E94CE24C5
:104AA000EACF84E98093BC0008958EE14A9B02C05E
:104AB0008150E1F74A9BFECF08955A9880E28A958B
:104AC000F1F75A9A0895FC013BE03A95F1F798E026
:104AD00020E080E031E040E14A95F1F7880F4A9B01
:104AE00002C08160232742E04A95F1F7000040E1CF
:104AF0004A95F1F7915079F790E19A95F1F799B1CC
:104B000032E03A95F1F7000040E14A95F1F792FB67
:104B1000992790F992272081920F90830895EF9220
:104B2000FF920F931F93CF93DF930F92CDB7DEB712
:104B300019828C017C01E60EF11C0E151F0561F433
:104B400081E09981911180E00F90DF91CF911F91C9
:104B50000F91FF90EF9008950E945525CE01019688
:104B60000E946325F80181938F01E7CF529A5A9AE8
:104B7000089552985A9AEA9AE9E6F0E080818F7C8B
:104B8000808308956150770B91E001C0990F6A9579
:104B9000EAF720E031E0911108C0222391F05A9AFF
:104BA00080E28A95F1F75A980895492F482339F001
:104BB0005A9A232740E24A95F1F79695ECCF5A98F6
:104BC000F9CF5A98EDCFFF920F931F93CF93DF93B6
:104BD000EC018C01060F111DC017D10731F4DF91D4
:104BE000CF911F910F91FF900895F9900E945D253C
:104BF00068E08F2D0E94C225EFCF1F920F920FB653
:104C00000F921124EF92FF920F931F932F933F93D4
:104C10004F935F936F937F938F939F93AF93BF93C4
:104C2000EF93FF93CF93DF930F92CDB7DEB7198247
:104C30000E945525CE0101960E946325A82FA695B6
:104C4000A695A695282F229525709A2F9570290F45
:104C5000922F937026952695920F982797708981A9
:104C6000982B09F075C0A43008F072C080E18A95D5
:104C7000F1F75A9A529AB2E0BA95F1F700C05A98F1
:104C8000EA2EF12CEAE0AE9FD0011124A359BE4FC9
:104C90001896ED91FC9119973097B1F060916A02E6
:104CA00070916B0216962D913C911797260F371F26
:104CB00013968D919C911497680F791F15964C91BE
:104CC000159712968C9109958AE08E9DF0018F9D23
:104CD000F00D1124E359FE4F6581662351F02091B8
:104CE0006A0230916B0286819781820F931F0E9426
:104CF000E3250E945D25F0E1FA95F1F75A98529864
:104D00005A9A80E18A95F1F78AE08E9D80018F9D05
:104D1000100D112403591E4FD80112966C91129751
:104D2000662371F120916A0230916B0213968D9186
:104D30009C91820F931F0E948F25D801ED91FC91C9
:104D4000882311F088E001C082E080830E9455250D
:104D50000F90DF91CF91FF91EF91BF91AF919F9114
:104D60008F917F916F915F914F913F912F911F9103
:104D70000F91FF90EF900F900FBE0F901F9018951E
:104D8000ED91FC91DFCF0F931F93CF93DF93EC0155
:104D900004970CF0A9C08AE08C9FF0018D9FF00D64
:104DA0001124E359FE4F80819181892B09F49CC025
:104DB000F894529A5A9885E08A95F1F700008C2F62
:104DC000869585709C2F9570890F982F9370869586
:104DD0008695890F8E0193E0000F111F9A95E1F7D8
:104DE000082B0E945D2500C068E0802F0E94C2252C
:104DF000A0E1AA95F1F752985A9A4A9B27C087E0FA
:104E000090E04A9925C08AE08C9F80018D9F100D0B
:104E1000112403591E4FF80165816623A1F12091E9
:104E20006A0230916B0286819781820F931F0E94E4
:104E30008F25811128C0529A5A9AD801ED91FC9180
:104E400082E08083789482E090E016C000C0D5CFE5
:104E50000197B9F4529A5A9A8AE08C9FF0018D9F7B
:104E6000F00D1124E359FE4F0190F081E02D81E017
:104E70008083789481E090E0DF91CF911F910F9132
:104E8000089500C0BECF0E945525B0E2BA95F1F753
:104E90005A98529AE0E1EA95F1F78AE08C9FF00186
:104EA0008D9FF00D1124E359FE4F6281662351F06E
:104EB00020916A0230916B0283819481820F931F4B
:104EC0000E94E3250E945D258AE08C9FF0018D9F62
:104ED000F00D1124E359FE4F0190F081E02D108276
:104EE000789490E080E0C8CF84E090E0C5CF9093C4
:104EF00075028093740208959093B5038093B40370
:104F000008950E949C16811103C08091AF030895FB
:104F1000E091B403F091B503309721F00190F08156
:104F2000E02D099480E00895E091B403F091B50379
:104F3000309799F02091AB01222359F02091E103A1
:104F400027FF07C0DC012C9111962C93119726E0C6
:104F50002C930280F381E02D09940895E091B4032D
:104F6000F091B503309739F022E0DC012C930480F6
:104F7000F581E02D099408952091B2033091B30397
:104F80002817390771F09093B3038093B203E0912F
:104F9000B403F091B503309721F00680F781E02D3E
:104FA000099408952091B0033091B103281739076F
:104FB00071F09093B1038093B003E091B403F0914A
:104FC000B503309721F00084F185E02D0994089510
:104FD000FC0132968091AB01882321F08091E1039E
:104FE0009EE187FF96E080E0915008F408952191BA
:104FF0002223D1F38F5FF8CF662301F12091AB011B
:105000002223F1F02091E10327FF1AC0462F469595
:10501000469546954E3190F4677021E030E002C02D
:10502000220F331F6A95E2F7840F911DFC018281E4
:1050300090E02823392381E0232B69F480E0089550
:10504000FC01329608962191261721F0E817F907FE
:10505000D1F7F4CF81E008959C01FC0132969FEFD7
:1050600080E04191461751F09F3F19F4411101C072
:10507000982F8F5F8630A9F79F3F09F40895290F75
:10508000311D97FD3A95F90162830895FC0132962E
:1050900008962191261303C0DF0111971C92E8178F
:1050A000F907B9F70895E62FE695E695E695EE310E
:1050B00068F4E80FF92FF11D677021E030E001C0BE
:1050C000220F6A95EAF78281822B82830895E62F68
:1050D000E695E695E695EE3170F4E80FF92FF11DAF
:1050E000677021E030E001C0220F6A95EAF7209551
:1050F00082812823228308952091AB01222329F065
:105100002091E10327FD0C9453280C942C28209126
:10511000AB01222329F02091E10327FD0C9467289D
:105120000C944628FC0132968091AB01882351F003
:105130008091E10387FF06C08EE1DF011D928A9511
:10514000E9F7089586E0F9CF08950C94A428811119
:1051500005C081E08093B6030C94A52882E0FACFC5
:1051600083E08093B6030C94A5280C94A72881E0D3
:105170008093B6030C94A5280C94B72808958091C9
:105180000606843031F10E94EA061092B70388E1E6
:1051900090E020E40FB6F894A895809360000FBECD
:1051A0002093600083B7817F846083BF83B7816071
:1051B00083BF7894889583B78E7F83BF0FB6F894AA
:1051C000A8958091600088618093600010926000D3
:1051D0000FBE089508950895CF930E94EA280E9473
:1051E00012160E94EB28C0E08C2F0E94DD14811162
:1051F00005C0CF5FC830C1F7CF91089581E0FCCFE3
:105200000E94F20A0C9465071F921FB61F92112488
:105210008F939F93AF93BF938091B703811113C076
:105220008091FE059091FF05A0910006B0910106C6
:105230004196A11DB11D8093FE059093FF05A0939B
:105240000006B0930106BF91AF919F918F911F907F
:105250001FBE1F90189582E084BD93E095BD9AEF24
:1052600097BD80936E0008952FB7F8948091FE0546
:105270009091FF05A0910006B09101062FBF0895FF
:105280002FB7F8946091FE057091FF05809100069C
:10529000909101062FBF08959C014FB7F89480911B
:1052A000FE059091FF05A0910006B09101064FBF49
:1052B000821B930B0895CF92DF92EF92FF922FB74C
:1052C000F894C090FE05D090FF05E0900006F090A5
:1052D00001062FBFA7019601261B370B480B590B60
:1052E000CA01B901FF90EF90DF90CF9008957894B4
:1052F0001F921FB61F9211248F939F93AF93BF935A
:105300008091FE059091FF05A0910006B0910106E5
:105310000196A11DB11D8093FE059093FF05A093FA
:105320000006B0930106BF91AF919F918F911F909E
:105330001FBE1F90189587E797E790930108809309
:10534000000888E19AE00FB6F894A8958093600071
:105350000FBE90936000FFCF8091DB030895089506
:105360009C0182E08093E9009FEF8091E8009150DA
:1053700085FD06C085ED8A95F1F700009111F5CF06
:105380008091E80085FF0CC050E040E066E070E0EE
:10539000C9010E94E92B8091E8008E778093E80094
:1053A0000895CF93DF93EC018091AB018823B1F195
:1053B0008091E10387FF32C060E282E08093E900E0
:1053C0008FEF9091E800815095FD06C095ED9A957C
:1053D000F1F700008111F5CF8091E80085FF1BC037
:1053E0008091AB0170E050E040E0811104C050E0DA
:1053F00040E068E070E0CE010E94E92B8091E80077
:105400008E778093E80080E2FE01ABEBB3E0019081
:105410000D928A95E1F7DF91CF91089568E081E0E0
:10542000CDCF8093B8037093BA036093B903809192
:105430000606843001F582E08093E9008FEF9091B9
:10544000E800815095FD06C095ED9A95F1F70000B2
:105450008111F5CF8091E80085FF0DC050E040E05C
:1054600063E070E088EB93E00E94E92B8091E80014
:105470008E778093E8000895BC0184E00C94112A93
:10548000BC0183E00C94112A80910506811109C0AA
:105490000E94792D0E94D62D8091E2008460809335
:1054A000E20008951092050608950C94B7286091C3
:1054B000020681E0611101C080E00C94B028909157
:1054C000060681E0943009F080E0609102060C94B9
:1054D000B52842E061EC81E00E94F52C42E261ECEB
:1054E00082E00E94F52C9091060681E0943009F04C
:1054F00080E0609102060C94A72880910806833012
:1055000009F460C030F48130C9F1823009F49CC0E4
:1055100008958A3009F488C08B3009F46EC0893050
:1055200009F04FC080910706813209F04AC080918E
:105530000B0690910C06029708F043C08091E8009A
:10554000877F8093E8008091E80082FF36C09091C9
:10555000F3008091F200029731F48091F1008130E4
:1055600011F0863021F48091F1008093DB0380916B
:10557000E8008B778093E8000C94292D8091070632
:10558000813AF9F48091E800877F8093E800809168
:105590000B0690910C06892B61F460E28BEB93E093
:1055A00070E00E94382C8091E8008B778093E800AF
:1055B000089560E090E080E0F3CF809106068111CD
:1055C000C2CF089580910706813AD9F780910B06E2
:1055D00090910C06892BA9F78091E800877F809332
:1055E000E8008091E80080FFFCCF8091AB018093C0
:1055F000F1008091E8008E77BDCF8091070681325F
:1056000001F780910B0690910C06892BD1F68091C1
:10561000E800877F8093E8000E94292D8091090689
:105620008093AB010C94F20A80910706813249F60F
:105630008091E800877F8093E8000E94292D809167
:105640000A068093DC03089580910706813A09F0E9
:10565000B8CF8091E800877F8093E8008091E800D0
:1056600080FFFCCF8091DC03C2CF84B7877F84BFEB
:105670000FB6F894A89580916000886180936000CF
:10568000109260000FBE80E890E00FB6F89480930F
:105690006100909361000FBE0C94BC280E94792D8C
:1056A0000E94D62DE2EEF0E08081846080837894C1
:1056B0000C945F308FE991E00C947C278091060672
:1056C0008530A9F480910606853011F00C940029EC
:1056D0000E94BF28809104068823A1F30E94EC2831
:1056E000882381F30E94D32B0E94F20AEBCF089506
:1056F00008950C947B2B292F33272330310519F182
:1057000068F42130310509F444C02230310509F430
:1057100045C090E080E030E020E025C02132310536
:1057200049F122323105A9F780E490E02EE73AE012
:1057300061157105C1F086EB90E028EC39E061302D
:10574000710589F0E6CF99278130910581F00097A6
:1057500029F00297F1F6E7E5F9E002C0E7E7F9E0A2
:10576000849190E09F01FA01318320830895E5E65A
:10577000F9E0F6CF89E090E02DE839E06115710598
:1057800091F389E090E026EA39E06130710559F340
:10579000C0CF82E190E026EB39E0E5CF8BE390E0EB
:1057A0002BE739E0E0CF80E189BD82E189BD09B412
:1057B00000FEFDCF8091D8008F7D8093D80080912E
:1057C000E00082608093E0008091E00081FDFCCFEA
:1057D0000895AF92BF92CF92DF92FF920F931F93E3
:1057E000CF93DF936C01EB018A010E94482DF82EC4
:1057F000811123C00115110539F0F80180819181D3
:10580000C81BD90BC80ED91EB12CA12C2097A9F00A
:105810008091E80085FD22C08091E8008E7780931A
:10582000E80001151105A1F0F80180819181A80E11
:10583000B91EB182A08285E0F82E8F2DDF91CF9125
:105840001F910F91FF90DF90CF90BF90AF90089580
:105850000E94482D8823D1F2F82EEFCFF6018191D6
:105860006F018093F1002197FFEFAF1ABF0ACECFEF
:10587000FC0180910D0690910E0686179707A0F007
:105880006115710529F49091E8009E779093E800E6
:1058900090E06115710551F4911108C08091E80004
:1058A00082FF34C080E00895BC01F2CF80910606EB
:1058B0008823C1F18530C1F18091E80083FD30C0BB
:1058C0008091E80082FDEACF8091E80080FFE1CF7F
:1058D0008091F3002091F200382F6115710519F0C5
:1058E0002830310558F091E02830310509F090E07A
:1058F0002091E8002E772093E800CBCF8191809310
:10590000F100615071092F5F3F4FE7CF809106068C
:10591000882341F0853041F08091E80083FFBECFBD
:1059200081E0089582E0089583E00895FC0180916C
:105930000D0690910E0686179707A0F06115710568
:1059400029F48091E8008E778093E80090E061155B
:10595000710551F4911108C08091E80082FF35C0B3
:1059600080E00895BC01F2CF809106068823C9F13A
:105970008530C9F18091E80083FD31C08091E80055
:1059800082FDEACF8091E80080FFE1CF8091F300B3
:105990002091F200382F6115710519F0283031057A
:1059A00058F091E02830310509F090E08091E8004E
:1059B0008E778093E800CBCF84918093F10031966D
:1059C000615071092F5F3F4FE6CF80910606882313
:1059D00041F0853041F08091E80083FFBDCF81E048
:1059E000089582E0089583E00895982F973028F075
:1059F0008F708093E90081E008959093E900242F4F
:105A0000762F50E0981731F07091EC002091ED0066
:105A10005091F00021FD02C09F5FE8CF3091EB0074
:105A20003E7F3093EB003091ED003D7F3093ED00F1
:105A30003091EB0031603093EB007093EC002093D9
:105A4000ED005093F0002091EE0027FDE5CF80E0BF
:105A500008958091070687FF13C08091E80082FFB8
:105A600006C08091E8008B778093E80004C08091A5
:105A700006068111F2CF0895809106068823D9F396
:105A80008091E80080FFF8CF8091E8008E77ECCF1E
:105A90002091E4003091E50095E6A9012091EC0009
:105AA000822F817020FF06C08091E80080FF06C031
:105AB00080E008952091E80022FD1AC0809106063A
:105AC000882389F0853089F08091EB0085FD0FC037
:105AD0002091E4003091E50042175307F9F291500C
